:020000040000FA
:040000000128F72FAD
:10026000F800F401F5017008F200F3017208F600DD
:100270007308F700781C3D293E2942297608F407C7
:100280007708F53D0130F635F70D890B432903104A
:10029000F80C7808031D4D294E293A297508F100FC
:1002A0007408F000080003102000500D510DD2001A
:1002B0005208D8005808031D5E295F2968290030BC
:1002C000D1000030D0000030CF000030CE00C72970
:1002D0004E08D2004F08D3005008D4005108D50072
:1002E0001F30D536D40CD30CD20C890B712952088F
:1002F000D6005608D700D017FF30CE05FF30CF0507
:10030000FF30D0050030D1059630D802D81F89299A
:100310008A29A2295808803A973E031890299129E2
:1003200092295F290130D136D00CCF0CCE0C890B2D
:1003300093290130D2005208D807031DA029A12912
:100340009229B72920305802031CA729A829B229CD
:100350005F290130CE35CF0DD00DD10D890BAA29E3
:100360000130D8025808031DB629B729A929570812
:100370000319BB29BC29C729CE09CF09D009D10946
:10038000CE0A0319CF0A0319D00A0319D10A0800AB
:10039000F80078080319CD29CE29E229F31FD129C5
:1003A000D229E2297009FA007109FB007209FC00E8
:1003B0007309FD00FA0A0319FB0A0319FC0A031961
:1003C000FD0AEA297308FD007208FC007108FB00B1
:1003D0007008FA007308720471047004031DF12997
:1003E000F229FB290030F3000030F2000030F10068
:1003F0000030F000732A9630F4007408F9000B2ADC
:100400000130F4007408F9070130FD36FC0CFB0CD8
:10041000FA0C890B052AFE307D05031D102A112ACE
:10042000002A252A0130F4007408F9070130FA0780
:100430000030FB3D0030FC3D0030FD3D0130FD361D
:10044000FC0CFB0CFA0C890B1F2AFF307D05031DE9
:100450002A2A2B2A122A352A0130F9020130FA35CC
:10046000FB0DFC0DFD0D890B2F2AFC1B382A392AA8
:100470003F2A0230790203183E2A3F2A2C2A791893
:10048000422A432A4B2AFF30FA05FF30FB057F3012
:10049000FC05FF30FD050310F90C7908F400F501A7
:1004A000F601F7011830F435F50DF60DF70D890B4F
:1004B000532A7408FA047508FB047608FC047708CC
:1004C000FD0478080319652A662A6B2AF31F692A36
:1004D0006A2A6B2AFD177D08F3007C08F2007B086E
:1004E000F1007A08F00008002100991319088739F3
:1004F00058389900FC3099059A168C010C168C120C
:1005000023000C1624000C122D0093133B00BB1388
:100510003B1323000C11220091128B130B128B1032
:100520008B11210015130C15951324000C152100B7
:100530009E178F309E05FC309E051D0883390C38B0
:100540009D001D1422001D143B009B131B171B1242
:10055000F3309B059C011E088F3910389E00FC303B
:100560009E059F30A005FC30A0051F13910192014C
:1005700027309600103095002000DB01DC012100BF
:100580009D149D18C42AC52AC12A1C082000600693
:10059000031DCE2A21001B0820005F06031DD12A5F
:1005A000D22AD82A5B085C04031DD72AD82A322B0A
:1005B0000130DB000030DC0021001C082000E000DE
:1005C00021001B082000DF005F08F0006008F10038
:1005D000890D893B8909F200F30001308131C8217E
:1005E000823173082000A7007208A6007108A500D8
:1005F0007008A4003E30A300F930A200DB30A10057
:100600002330A0008531A025823120002308C100BD
:100610002208C0002108BF002008BE004330BD00F2
:10062000FA30BC000030BB000030BA0083316823D0
:10063000823120003D08D1003C08D0003B08CF00AB
:100640003A08CE0081315321823120004F08DE006C
:100650004E08DD005E083B00940020005D083B0072
:1006600093009B133B009F179B171D1C382B392BA6
:10067000352B9D018B1C3D2B3E2BBF2A02302000C9
:10068000DA004530D900A930890B442BD90B442B13
:10069000DA0B442B00328B1002303B009400ED301B
:1006A00093009B139F179B178B1C572B582B542B76
:1006B00002302000DA004530D900A930890B5E2BCA
:1006C000D90B5E2BDA0B5E2B00328B10BF2A012870
:1006D00020003D088039C2004208CA003D35C200F2
:1006E0004208CC00BC1F752B762B772B4C144C0882
:1006F00003197B2B7C2B8C2B4C0A031D802B812B0D
:10070000892B0030BD000030BC000030BB00003041
:10071000BA00BC17BD01942B0030BD000030BC00F6
:100720000030BB000030BA0041088039C2004208E6
:10073000CB004B084A0603199E2B9F2BA02B4A1770
:100740004135C2004208CB00C01FA72BA82BA92B04
:100750004B144B080319AD2BAE2BBE2B4B0A031DBC
:10076000B22BB32BBB2B0030C1000030C0000030D7
:10077000BF000030BE00C017C101C62B0030C10051
:100780000030C0000030BF000030BE004C084B02FB
:100790000318CB2BCC2B102C4A1FCF2BD02BD42BB8
:1007A0008030C2004208CA064C08C2004208CD0090
:1007B0004B08C2004208CC004D08C2004208CB00E2
:1007C0003A08C2004208CD003E08C2004208BA0002
:1007D0004D08C2004208BE003B08C2004208CD00DE
:1007E0003F08C2004208BB004D08C2004208BF00DB
:1007F0003C08C2004208CD004008C2004208BC00CC
:100800004D08C2004208C0003D08C2004208CD00A9
:100810004108C2004208BD004D08C2004208C100A4
:10082000CD014B08C200C3014308C5004C08420279
:10083000C400031CC5034508803AC6008030460248
:10084000031D242C1A304402031C272C282C602C56
:1008500020003D083C043B043A04031D302C322C9C
:100860000130332C0030C2004208CD000030BD0002
:100870000030BC000030BB000030BA004B08C200A2
:100880004208CC00672C4D1C462C472C4D2C4D3675
:100890000138C2004208CD004F2C0310CD0C3A1C89
:1008A000522C532C542CCD170130C200BD37BC0C38
:1008B000BB0CBA0CC20B562C0130C2004208CC074C
:1008C00020004B084C02031C662C672C432C4A1B4F
:1008D0006A2C6B2CA32C4C08031D6F2C702C792CCC
:1008E0000030BD000030BC000030BB000030BA005A
:1008F0009F2D3E08BA073F08BB3D4008BC3D41085C
:10090000BD3D3D1C842C852C2F2D4D1C882C892C05
:100910008F2C4D360138C2004208CD00912C0310B7
:10092000CD0C3A1C942C952C962CCD170130C2007E
:10093000BD37BC0CBB0CBA0CC20B982C0130C200EA
:100940004208CC072F2D3D08803AC2004108803A6A
:100950004202031DB52C40083C02031DB52C3F0884
:100960003B02031DB52C3E083A020318B82CB92CE3
:10097000F12CFF30C200FF30C300FF30C400FF3055
:10098000C5003A083E02C6003B083F3BC7003C0892
:10099000403BC8003D08413BC9004608C207470824
:1009A000C33D4808C43D4908C53D4508BD0044084D
:1009B000BC004308BB004208BA008030C2004208B5
:1009C000CA06CD09CD0A4D08031DE72CE82CF92CE9
:1009D0000130BA070030BB3D0030BC3D0030BD3DAA
:1009E000F92C3E08BA023F08BB3B4008BC3B41081B
:1009F000BD3B3D083C043B043A04031D002D012D82
:100A00002B2D4D08031D052D062D2B2D0030BD006F
:100A10000030BC000030BB000030BA009F2D013018
:100A2000BA35BB0DBC0DBD0D890B102DCD1F192D79
:100A30001A2D1B2D3A144D1C1E2D1F2D222D031473
:100A4000CD0D242D0310CD0D4C080319282D292D73
:100A50002B2D0130CC02BC1F2E2D2F2D0F2DCB01A5
:100A6000CD1F332D342D422D4D087F390319392DDB
:100A70003A2D3D2DCB01CB0A422D3A1C402D412D64
:100A8000422D3A2D4B080319462D472D742D013068
:100A9000BA070030BB3D0030BC3D0030BD3D3D1CC1
:100AA000522D532D742D3A08C2003B08C3003C0858
:100AB000C4003D08C5000130C600C537C40CC30CD6
:100AC000C20CC60B5D2D4508BD004408BC004308A0
:100AD000BB004208BA004C0A03196F2D702D742D0B
:100AE0000130C2004208CC074C0A0319782D792D39
:100AF0007E2D4C08031D7D2D7E2D8C2D0030BD00DC
:100B00000030BC000030BB000030BA004C08031DB0
:100B10008A2D8B2D8C2DCA014C1C8F2D902D922D42
:100B2000BC17962D7F30C2004208BC054C36C2006F
:100B30004208BD00CA1F9D2D9E2D9F2DBD17080088
:100B4000200023088039A8002808AD002335A8001C
:100B50002808B300A21FAD2DAE2DAF2D33143308DE
:100B60000319B32DB42DC32D330A031DB82DB92D90
:100B7000C12D0030A3000030A2000030A1000030E1
:100B8000A000A217CB2D0030A3000030A20000303F
:100B9000A1000030A00027088039A8002808AD0671
:100BA0002735A8002808B200A61FD72DD82DD92D8B
:100BB000321432080319DD2DDE2DED2D320A031D0E
:100BC000E22DE32DEB2D0030A7000030A600003011
:100BD000A5000030A400A617F52D0030A7000030B6
:100BE000A6000030A5000030A40032080319F92D3A
:100BF000FA2DFF2D3308031DFE2DFF2D082E00308A
:100C0000A3000030A2000030A1000030A000F62FA9
:100C10002008A8002808F0002608813130218531FD
:100C200071082000B9007008B8003808A800A901B0
:100C3000AA01AB012B08B1002A08B0002908AF00B7
:100C40002808AE003908A800A901AA01AB012B08A9
:100C5000B7002A08B6002908B5002808B400210802
:100C6000A8002808F000250881313021853171085D
:100C70002000B9007008B8003808A800A901AA012E
:100C8000AB012808AE072908AF3D2A08B03D2B0864
:100C9000B13D3908A800A901AA01AB012808B40791
:100CA0002908B53D2A08B63D2B08B73D2208A80003
:100CB0002808F00024088131302185317108200096
:100CC000B9007008B8003808A800A901AA01AB0152
:100CD0002808AE072908AF3D2A08B03D2B08B13DD2
:100CE0003908A800A901AA01AB012808B4072908FE
:100CF000B53D2A08B63D2B08B73D0830AE35AF0DDF
:100D0000B00DB10D890B7E2E2108A8002808F00037
:100D1000240881313021853171082000B900700824
:100D2000B8003808AE073908AF3D0030B03DB13DDE
:100D30002008A8002808F0002508813130218531DD
:100D400071082000B9007008B8003808AE073908EB
:100D5000AF3D0030B03DB13D0830AE35AF0DB00D08
:100D6000B10D890BAD2E2008A8002808F00024083A
:100D700081313021853171082000B9007008B80038
:100D80003808AE073908AF3D0030B03DB13D21080D
:100D9000A8002808F000260881313021853171082B
:100DA0002000B9007008B8003808B4073908B53D0C
:100DB0000030B63DB73D2208A8002808F0002508FD
:100DC00081313021853171082000B9007008B800E8
:100DD0003808B4073908B53D0030B63DB73D2208A4
:100DE000A8002808F00026088131302185317108DB
:100DF0002000B9007008B8003808A8003908A90018
:100E0000AA01AB010830A835A90DAA0DAB0D890BBD
:100E1000032F2808B4072908B53D2A08B63D2B083A
:100E2000B73D2E08A8002F08A9003008AA003108F5
:100E3000AB001830AB36AA0CA90CA80C890B1A2FE2
:100E40002808B4072908B53D2A08B63D2B08B73D48
:100E50000830AE35AF0DB00DB10D890B292F330819
:100E60003207A800A901A90D2808823EB800FF306A
:100E7000293DB900522F0130B435B50DB60DB70D6F
:100E8000890B3C2FB11F452F462F472F34140130BB
:100E9000AE35AF0DB00DB10D890B482FFF30B8073F
:100EA000FF30B93DB61F552F562F3B2FB201B11F52
:100EB0005A2F5B2F772FFF302E05A800FF302F050C
:100EC000A900FF303005AA007F303105AB002B08A8
:100ED0002A042904280403196E2F6F2F722FB201E0
:100EE000B20A772F341C752F762F772F6F2F320889
:100EF00003197B2F7C2FA42F0130B4070030B53DA0
:100F00000030B63D0030B73D371C872F882FA42F07
:100F10003408A8003508A9003608AA003708AB0035
:100F20000130AC00AB37AA0CA90CA80CAC0B922F6B
:100F30002B08B7002A08B6002908B5002808B40015
:100F40000130B8070030B93D3908803AA800803038
:100F50002802031DAD2FFF303802031CB02FB12F24
:100F6000BB2F7F302000B7008030B6000030B500C6
:100F70000030B400EA2F20003908803AA800803001
:100F80002802031DC52F013038020318C82FC92FAE
:100F9000D42F00302000B7000030B6000030B5007C
:100FA0000030B400AD01EA2F20003808A80028085E
:100FB000B300FF30B405FF30B5057F30B605003013
:100FC000B705331CE42FE52FE62FB6173336A800FC
:100FD0002808B7002D08A8002808B7043708A30080
:100FE0003608A2003508A1003408A000080020003F
:100FF000DB01DC01DD01DE01DF01E0012000742AFC
:020000040001F9
:04000E00E4FFFFFF0D
:00000001FF
